{"abi":[{"type":"function","name":"buyNFT","inputs":[{"name":"index","type":"uint256","internalType":"uint256"},{"name":"deadline","type":"uint256","internalType":"uint256"},{"name":"v","type":"uint8","internalType":"uint8"},{"name":"r","type":"bytes32","internalType":"bytes32"},{"name":"s","type":"bytes32","internalType":"bytes32"}],"outputs":[],"stateMutability":"nonpayable"},{"type":"function","name":"cancelOrder","inputs":[{"name":"index","type":"uint256","internalType":"uint256"}],"outputs":[],"stateMutability":"nonpayable"},{"type":"function","name":"createOrder","inputs":[{"name":"nft","type":"address","internalType":"address"},{"name":"tokenId","type":"uint256","internalType":"uint256"},{"name":"token","type":"address","internalType":"address"},{"name":"price","type":"uint256","internalType":"uint256"}],"outputs":[],"stateMutability":"nonpayable"},{"type":"function","name":"deployNFTContract","inputs":[{"name":"name","type":"string","internalType":"string"},{"name":"symbol","type":"string","internalType":"string"},{"name":"tokenIconURI","type":"string","internalType":"string"}],"outputs":[{"name":"","type":"address","internalType":"address"}],"stateMutability":"nonpayable"},{"type":"function","name":"getOrderCount","inputs":[],"outputs":[{"name":"","type":"uint256","internalType":"uint256"}],"stateMutability":"view"},{"type":"function","name":"getOrders","inputs":[],"outputs":[{"name":"","type":"tuple[]","internalType":"struct NFTMarket.Order[]","components":[{"name":"nft","type":"address","internalType":"address"},{"name":"tokenId","type":"uint256","internalType":"uint256"},{"name":"token","type":"address","internalType":"address"},{"name":"price","type":"uint256","internalType":"uint256"},{"name":"seller","type":"address","internalType":"address"},{"name":"status","type":"uint256","internalType":"uint256"}]}],"stateMutability":"view"},{"type":"function","name":"orders","inputs":[{"name":"","type":"uint256","internalType":"uint256"}],"outputs":[{"name":"nft","type":"address","internalType":"address"},{"name":"tokenId","type":"uint256","internalType":"uint256"},{"name":"token","type":"address","internalType":"address"},{"name":"price","type":"uint256","internalType":"uint256"},{"name":"seller","type":"address","internalType":"address"},{"name":"status","type":"uint256","internalType":"uint256"}],"stateMutability":"view"},{"type":"event","name":"NFTContractDeployed","inputs":[{"name":"nftAddress","type":"address","indexed":true,"internalType":"address"},{"name":"name","type":"string","indexed":false,"internalType":"string"},{"name":"symbol","type":"string","indexed":false,"internalType":"string"}],"anonymous":false},{"type":"event","name":"OrderCancelled","inputs":[{"name":"orderId","type":"uint256","indexed":true,"internalType":"uint256"}],"anonymous":false},{"type":"event","name":"OrderCreated","inputs":[{"name":"orderId","type":"uint256","indexed":true,"internalType":"uint256"},{"name":"nft","type":"address","indexed":true,"internalType":"address"},{"name":"tokenId","type":"uint256","indexed":true,"internalType":"uint256"},{"name":"token","type":"address","indexed":false,"internalType":"address"},{"name":"price","type":"uint256","indexed":false,"internalType":"uint256"},{"name":"seller","type":"address","indexed":false,"internalType":"address"}],"anonymous":false},{"type":"event","name":"OrderFulfilled","inputs":[{"name":"orderId","type":"uint256","indexed":true,"internalType":"uint256"},{"name":"buyer","type":"address","indexed":false,"internalType":"address"}],"anonymous":false}],"bytecode":{"object":"0x6080604052348015600f57600080fd5b506126ba8061001f6000396000f3fe608060405234801561001057600080fd5b506004361061007d5760003560e01c80638d0a5fbb1161005b5780638d0a5fbb146100e0578063a85c38ef146100f1578063f07af69d14610147578063fc05ca311461015a57600080fd5b80632e2dc43e14610082578063514fcac7146100a057806365b8d328146100b5575b600080fd5b61008a61016d565b6040516100979190610ada565b60405180910390f35b6100b36100ae366004610b67565b610210565b005b6100c86100c3366004610c25565b610395565b6040516001600160a01b039091168152602001610097565b600054604051908152602001610097565b6101046100ff366004610b67565b61041d565b604080516001600160a01b0397881681526020810196909652938616938501939093526060840191909152909216608082015260a081019190915260c001610097565b6100b3610155366004610cb9565b610474565b6100b3610168366004610d20565b6107bc565b60606000805480602002602001604051908101604052809291908181526020016000905b828210156102075760008481526020908190206040805160c0810182526006860290920180546001600160a01b0390811684526001808301548587015260028301548216938501939093526003820154606085015260048201541660808401526005015460a08301529083529092019101610191565b50505050905090565b600054811061025d5760405162461bcd60e51b815260206004820152601460248201527313dc99195c88191bd95cc81b9bdd08195e1a5cdd60621b60448201526064015b60405180910390fd5b336001600160a01b03166000828154811061027a5761027a610d68565b60009182526020909120600460069092020101546001600160a01b0316146102d55760405162461bcd60e51b815260206004820152600e60248201526d2737ba103a34329039b2b63632b960911b6044820152606401610254565b600081815481106102e8576102e8610d68565b90600052602060002090600602016005015460001461033f5760405162461bcd60e51b81526020600482015260136024820152724f72646572206973206e6f742061637469766560681b6044820152606401610254565b60026000828154811061035457610354610d68565b6000918252602082206005600690920201019190915560405182917f61b9399f2f0f32ca39ce8d7be32caed5ec22fe07a6daba3a467ed479ec60658291a250565b6000808484846040516103a790610acd565b6103b393929190610dc4565b604051809103906000f0801580156103cf573d6000803e3d6000fd5b509050806001600160a01b03167fe693e8e3d21f2e3c5eeb02359fea32bdf5e73ca7a0e7b5730c86344408de901e868660405161040d929190610e07565b60405180910390a2949350505050565b6000818154811061042d57600080fd5b60009182526020909120600690910201805460018201546002830154600384015460048501546005909501546001600160a01b039485169650929491841693909291169086565b60005485106104bc5760405162461bcd60e51b815260206004820152601460248201527313dc99195c88191bd95cc81b9bdd08195e1a5cdd60621b6044820152606401610254565b60008086815481106104d0576104d0610d68565b9060005260206000209060060201905080600501546000146105345760405162461bcd60e51b815260206004820152601f60248201527f4f72646572206973206e6f7420617661696c61626c6520666f722073616c65006044820152606401610254565b6002810154600382015460405163d505accf60e01b815233600482015230602482015260448101919091526064810187905260ff8616608482015260a4810185905260c481018490526001600160a01b039091169063d505accf9060e401600060405180830381600087803b1580156105ac57600080fd5b505af19250505080156105bd575060015b6105f95760405162461bcd60e51b815260206004820152600d60248201526c14195c9b5a5d0819985a5b1959609a1b6044820152606401610254565b600281015460048083015460038401546040516323b872dd60e01b815233938101939093526001600160a01b0391821660248401526044830152909116906323b872dd906064016020604051808303816000875af115801561065f573d6000803e3d6000fd5b505050506040513d601f19601f820116820180604052508101906106839190610e35565b6106c75760405162461bcd60e51b8152602060048201526015602482015274151bdad95b881d1c985b9cd9995c8819985a5b1959605a1b6044820152606401610254565b805460048083015460018401546040516323b872dd60e01b81526001600160a01b03928316938101939093523360248401526044830152909116906323b872dd90606401600060405180830381600087803b15801561072557600080fd5b505af1925050508015610736575060015b6107785760405162461bcd60e51b8152602060048201526013602482015272139195081d1c985b9cd9995c8819985a5b1959606a1b6044820152606401610254565b6001600582015560405133815286907fe5f48e2a4a303d196ad814389aa54cf34e7b1e404e740599d005907a2ca0cd6c9060200160405180910390a2505050505050565b600081116107fc5760405162461bcd60e51b815260206004820152600d60248201526c496e76616c696420707269636560981b6044820152606401610254565b60405163020604bf60e21b81526004810184905230906001600160a01b0386169063081812fc90602401602060405180830381865afa158015610843573d6000803e3d6000fd5b505050506040513d601f19601f820116820180604052508101906108679190610e5e565b6001600160a01b031614806108e5575060405163e985e9c560e01b81523360048201523060248201526001600160a01b0385169063e985e9c590604401602060405180830381865afa1580156108c1573d6000803e3d6000fd5b505050506040513d601f19601f820116820180604052508101906108e59190610e35565b6109205760405162461bcd60e51b815260206004820152600c60248201526b139bdd08185c1c1c9bdd995960a21b6044820152606401610254565b600080546040805160c0810182526001600160a01b0388811680835260208084018a815289841685870181815260608088018c81523360808a0181815260a08b018e815260018e018f559d8052995160068d027f290decd9548b62a8d60345a988386fc84ba6bc95484008f6362f93160ef3e56381018054928c166001600160a01b031993841617905596517f290decd9548b62a8d60345a988386fc84ba6bc95484008f6362f93160ef3e56488015593517f290decd9548b62a8d60345a988386fc84ba6bc95484008f6362f93160ef3e56587018054918b1691861691909117905590517f290decd9548b62a8d60345a988386fc84ba6bc95484008f6362f93160ef3e56686015597517f290decd9548b62a8d60345a988386fc84ba6bc95484008f6362f93160ef3e567850180549190981692169190911790955597517f290decd9548b62a8d60345a988386fc84ba6bc95484008f6362f93160ef3e5689091015584519687528601879052928501919091529192869284917f6260efc9cd688160b8c2712de9790a1927a98bcfcc490258ca224137751d74b1910160405180910390a45050505050565b61180980610e7c83390190565b602080825282518282018190526000918401906040840190835b81811015610b5c57835180516001600160a01b03908116855260208083015181870152604080840151831690870152606080840151908701526080808401519092169186019190915260a091820151918501919091529093019260c090920191600101610af4565b509095945050505050565b600060208284031215610b7957600080fd5b5035919050565b634e487b7160e01b600052604160045260246000fd5b600082601f830112610ba757600080fd5b813567ffffffffffffffff811115610bc157610bc1610b80565b604051601f8201601f19908116603f0116810167ffffffffffffffff81118282101715610bf057610bf0610b80565b604052818152838201602001851015610c0857600080fd5b816020850160208301376000918101602001919091529392505050565b600080600060608486031215610c3a57600080fd5b833567ffffffffffffffff811115610c5157600080fd5b610c5d86828701610b96565b935050602084013567ffffffffffffffff811115610c7a57600080fd5b610c8686828701610b96565b925050604084013567ffffffffffffffff811115610ca357600080fd5b610caf86828701610b96565b9150509250925092565b600080600080600060a08688031215610cd157600080fd5b8535945060208601359350604086013560ff81168114610cf057600080fd5b94979396509394606081013594506080013592915050565b6001600160a01b0381168114610d1d57600080fd5b50565b60008060008060808587031215610d3657600080fd5b8435610d4181610d08565b9350602085013592506040850135610d5881610d08565b9396929550929360600135925050565b634e487b7160e01b600052603260045260246000fd5b6000815180845260005b81811015610da457602081850181015186830182015201610d88565b506000602082860101526020601f19601f83011685010191505092915050565b606081526000610dd76060830186610d7e565b8281036020840152610de98186610d7e565b90508281036040840152610dfd8185610d7e565b9695505050505050565b604081526000610e1a6040830185610d7e565b8281036020840152610e2c8185610d7e565b95945050505050565b600060208284031215610e4757600080fd5b81518015158114610e5757600080fd5b9392505050565b600060208284031215610e7057600080fd5b8151610e5781610d0856fe608060405234801561001057600080fd5b5060405161180938038061180983398101604081905261002f9161011d565b8282600061003d838261023b565b50600161004a828261023b565b506009915061005b9050828261023b565b505050506102f9565b634e487b7160e01b600052604160045260246000fd5b600082601f83011261008b57600080fd5b81516001600160401b038111156100a4576100a4610064565b604051601f8201601f19908116603f011681016001600160401b03811182821017156100d2576100d2610064565b6040528181528382016020018510156100ea57600080fd5b60005b82811015610109576020818601810151838301820152016100ed565b506000918101602001919091529392505050565b60008060006060848603121561013257600080fd5b83516001600160401b0381111561014857600080fd5b6101548682870161007a565b602086015190945090506001600160401b0381111561017257600080fd5b61017e8682870161007a565b604086015190935090506001600160401b0381111561019c57600080fd5b6101a88682870161007a565b9150509250925092565b600181811c908216806101c657607f821691505b6020821081036101e657634e487b7160e01b600052602260045260246000fd5b50919050565b601f82111561023657806000526020600020601f840160051c810160208510156102135750805b601f840160051c820191505b81811015610233576000815560010161021f565b50505b505050565b81516001600160401b0381111561025457610254610064565b6102688161026284546101b2565b846101ec565b6020601f82116001811461029c57600083156102845750848201515b600019600385901b1c1916600184901b178455610233565b600084815260208120601f198516915b828110156102cc57878501518255602094850194600190920191016102ac565b50848210156102ea5786840151600019600387901b60f8161c191681555b50505050600190811b01905550565b611501806103086000396000f3fe608060405234801561001057600080fd5b506004361061010b5760003560e01c806370a08231116100a2578063b88d4fde11610071578063b88d4fde14610213578063c87b56dd14610226578063d0def52114610239578063e985e9c51461024c578063e9a785ef1461025f57600080fd5b806370a08231146101dd5780639387f289146101f057806395d89b41146101f8578063a22cb4651461020057600080fd5b806318160ddd116100de57806318160ddd1461018d57806323b872dd146101a457806342842e0e146101b75780636352211e146101ca57600080fd5b806301ffc9a71461011057806306fdde0314610138578063081812fc1461014d578063095ea7b314610178575b600080fd5b61012361011e366004610f52565b610274565b60405190151581526020015b60405180910390f35b61014061029f565b60405161012f9190610fbf565b61016061015b366004610fd2565b610331565b6040516001600160a01b03909116815260200161012f565b61018b610186366004611007565b61035a565b005b61019660085481565b60405190815260200161012f565b61018b6101b2366004611031565b610369565b61018b6101c5366004611031565b6103f9565b6101606101d8366004610fd2565b610419565b6101966101eb36600461106e565b610424565b61014061046c565b6101406104fa565b61018b61020e366004611089565b610509565b61018b610221366004611155565b610514565b610140610234366004610fd2565b61052c565b6101966102473660046111d1565b61063d565b61012361025a366004611233565b610688565b6102676106b6565b60405161012f9190611266565b60006001600160e01b03198216632483248360e11b148061029957506102998261074c565b92915050565b6060600080546102ae906112cb565b80601f01602080910402602001604051908101604052809291908181526020018280546102da906112cb565b80156103275780601f106102fc57610100808354040283529160200191610327565b820191906000526020600020905b81548152906001019060200180831161030a57829003601f168201915b5050505050905090565b600061033c8261079c565b506000828152600460205260409020546001600160a01b0316610299565b6103658282336107d5565b5050565b6001600160a01b03821661039857604051633250574960e11b8152600060048201526024015b60405180910390fd5b60006103a58383336107e2565b9050836001600160a01b0316816001600160a01b0316146103f3576040516364283d7b60e01b81526001600160a01b038086166004830152602482018490528216604482015260640161038f565b50505050565b61041483838360405180602001604052806000815250610514565b505050565b60006102998261079c565b60006001600160a01b038216610450576040516322718ad960e21b81526000600482015260240161038f565b506001600160a01b031660009081526003602052604090205490565b60098054610479906112cb565b80601f01602080910402602001604051908101604052809291908181526020018280546104a5906112cb565b80156104f25780601f106104c7576101008083540402835291602001916104f2565b820191906000526020600020905b8154815290600101906020018083116104d557829003601f168201915b505050505081565b6060600180546102ae906112cb565b6103653383836108db565b61051f848484610369565b6103f3338585858561097a565b60606105378261079c565b5060008281526006602052604081208054610551906112cb565b80601f016020809104026020016040519081016040528092919081815260200182805461057d906112cb565b80156105ca5780601f1061059f576101008083540402835291602001916105ca565b820191906000526020600020905b8154815290600101906020018083116105ad57829003601f168201915b5050505050905060006105e860408051602081019091526000815290565b905080516000036105fa575092915050565b81511561062c5780826040516020016106149291906112ff565b60405160208183030381529060405292505050919050565b61063584610aa5565b949350505050565b60078054600091829190826106518361132e565b9190505590506106618482610b1a565b61066b8184610b34565b6008805490600061067b8361132e565b9091555090949350505050565b6001600160a01b03918216600090815260056020908152604080832093909416825291909152205460ff1690565b6060600060085467ffffffffffffffff8111156106d5576106d56110c5565b60405190808252806020026020018201604052801561070857816020015b60608152602001906001900390816106f35790505b50905060005b600854811015610746576107218161052c565b82828151811061073357610733611355565b602090810291909101015260010161070e565b50919050565b60006001600160e01b031982166380ac58cd60e01b148061077d57506001600160e01b03198216635b5e139f60e01b145b8061029957506301ffc9a760e01b6001600160e01b0319831614610299565b6000818152600260205260408120546001600160a01b03168061029957604051637e27328960e01b81526004810184905260240161038f565b6104148383836001610b84565b6000828152600260205260408120546001600160a01b039081169083161561080f5761080f818486610c8a565b6001600160a01b0381161561084d5761082c600085600080610b84565b6001600160a01b038116600090815260036020526040902080546000190190555b6001600160a01b0385161561087c576001600160a01b0385166000908152600360205260409020805460010190555b60008481526002602052604080822080546001600160a01b0319166001600160a01b0389811691821790925591518793918516917fddf252ad1be2c89b69c2b068fc378daa952ba7f163c4a11628f55a4df523b3ef91a4949350505050565b6001600160a01b03821661090d57604051630b61174360e31b81526001600160a01b038316600482015260240161038f565b6001600160a01b03838116600081815260056020908152604080832094871680845294825291829020805460ff191686151590811790915591519182527f17307eab39ab6107e8899845ad3d59bd9653f200f220920489ca2b5937696c31910160405180910390a3505050565b6001600160a01b0383163b15610a9e57604051630a85bd0160e11b81526001600160a01b0384169063150b7a02906109bc90889088908790879060040161136b565b6020604051808303816000875af19250505080156109f7575060408051601f3d908101601f191682019092526109f4918101906113a8565b60015b610a60573d808015610a25576040519150601f19603f3d011682016040523d82523d6000602084013e610a2a565b606091505b508051600003610a5857604051633250574960e11b81526001600160a01b038516600482015260240161038f565b805181602001fd5b6001600160e01b03198116630a85bd0160e11b14610a9c57604051633250574960e11b81526001600160a01b038516600482015260240161038f565b505b5050505050565b6060610ab08261079c565b506000610ac860408051602081019091526000815290565b90506000815111610ae85760405180602001604052806000815250610b13565b80610af284610cee565b604051602001610b039291906112ff565b6040516020818303038152906040525b9392505050565b610365828260405180602001604052806000815250610d81565b6000828152600660205260409020610b4c828261140c565b506040518281527ff8e1a15aba9398e019f0b49df1a4fde98ee17ae345cb5f6b5e2c27f5033e8ce79060200160405180910390a15050565b8080610b9857506001600160a01b03821615155b15610c5a576000610ba88461079c565b90506001600160a01b03831615801590610bd45750826001600160a01b0316816001600160a01b031614155b8015610be75750610be58184610688565b155b15610c105760405163a9fbf51f60e01b81526001600160a01b038416600482015260240161038f565b8115610c585783856001600160a01b0316826001600160a01b03167f8c5be1e5ebec7d5bd14f71427d1e84f3dd0314c0f7b2291e5b200ac8c7c3b92560405160405180910390a45b505b5050600090815260046020526040902080546001600160a01b0319166001600160a01b0392909216919091179055565b610c95838383610d99565b610414576001600160a01b038316610cc357604051637e27328960e01b81526004810182905260240161038f565b60405163177e802f60e01b81526001600160a01b03831660048201526024810182905260440161038f565b60606000610cfb83610dfc565b600101905060008167ffffffffffffffff811115610d1b57610d1b6110c5565b6040519080825280601f01601f191660200182016040528015610d45576020820181803683370190505b5090508181016020015b600019016f181899199a1a9b1b9c1cb0b131b232b360811b600a86061a8153600a8504945084610d4f57509392505050565b610d8b8383610ed4565b61041433600085858561097a565b60006001600160a01b038316158015906106355750826001600160a01b0316846001600160a01b03161480610dd35750610dd38484610688565b806106355750506000908152600460205260409020546001600160a01b03908116911614919050565b60008072184f03e93ff9f4daa797ed6e38ed64bf6a1f0160401b8310610e3b5772184f03e93ff9f4daa797ed6e38ed64bf6a1f0160401b830492506040015b6d04ee2d6d415b85acef81000000008310610e67576d04ee2d6d415b85acef8100000000830492506020015b662386f26fc100008310610e8557662386f26fc10000830492506010015b6305f5e1008310610e9d576305f5e100830492506008015b6127108310610eb157612710830492506004015b60648310610ec3576064830492506002015b600a83106102995760010192915050565b6001600160a01b038216610efe57604051633250574960e11b81526000600482015260240161038f565b6000610f0c838360006107e2565b90506001600160a01b03811615610414576040516339e3563760e11b81526000600482015260240161038f565b6001600160e01b031981168114610f4f57600080fd5b50565b600060208284031215610f6457600080fd5b8135610b1381610f39565b60005b83811015610f8a578181015183820152602001610f72565b50506000910152565b60008151808452610fab816020860160208601610f6f565b601f01601f19169290920160200192915050565b602081526000610b136020830184610f93565b600060208284031215610fe457600080fd5b5035919050565b80356001600160a01b038116811461100257600080fd5b919050565b6000806040838503121561101a57600080fd5b61102383610feb565b946020939093013593505050565b60008060006060848603121561104657600080fd5b61104f84610feb565b925061105d60208501610feb565b929592945050506040919091013590565b60006020828403121561108057600080fd5b610b1382610feb565b6000806040838503121561109c57600080fd5b6110a583610feb565b9150602083013580151581146110ba57600080fd5b809150509250929050565b634e487b7160e01b600052604160045260246000fd5b60008067ffffffffffffffff8411156110f6576110f66110c5565b50604051601f19601f85018116603f0116810181811067ffffffffffffffff82111715611125576111256110c5565b60405283815290508082840185101561113d57600080fd5b83836020830137600060208583010152509392505050565b6000806000806080858703121561116b57600080fd5b61117485610feb565b935061118260208601610feb565b925060408501359150606085013567ffffffffffffffff8111156111a557600080fd5b8501601f810187136111b657600080fd5b6111c5878235602084016110db565b91505092959194509250565b600080604083850312156111e457600080fd5b6111ed83610feb565b9150602083013567ffffffffffffffff81111561120957600080fd5b8301601f8101851361121a57600080fd5b611229858235602084016110db565b9150509250929050565b6000806040838503121561124657600080fd5b61124f83610feb565b915061125d60208401610feb565b90509250929050565b6000602082016020835280845180835260408501915060408160051b86010192506020860160005b828110156112bf57603f198786030184526112aa858351610f93565b9450602093840193919091019060010161128e565b50929695505050505050565b600181811c908216806112df57607f821691505b60208210810361074657634e487b7160e01b600052602260045260246000fd5b60008351611311818460208801610f6f565b835190830190611325818360208801610f6f565b01949350505050565b60006001820161134e57634e487b7160e01b600052601160045260246000fd5b5060010190565b634e487b7160e01b600052603260045260246000fd5b6001600160a01b038581168252841660208201526040810183905260806060820181905260009061139e90830184610f93565b9695505050505050565b6000602082840312156113ba57600080fd5b8151610b1381610f39565b601f82111561041457806000526020600020601f840160051c810160208510156113ec5750805b601f840160051c820191505b81811015610a9e57600081556001016113f8565b815167ffffffffffffffff811115611426576114266110c5565b61143a8161143484546112cb565b846113c5565b6020601f82116001811461146e57600083156114565750848201515b600019600385901b1c1916600184901b178455610a9e565b600084815260208120601f198516915b8281101561149e578785015182556020948501946001909201910161147e565b50848210156114bc5786840151600019600387901b60f8161c191681555b50505050600190811b0190555056fea26469706673582212201054444abecc6ede15bc400d3cf2b431f8d203b4e1da9b0f7cb485f1cece3d5864736f6c634300081c0033a2646970667358221220117fae8a78cae0b3e192fc6a6f731b8f9737c868e1b1fac371b01339db2f99af64736f6c634300081c0033","linkReferences":{}},"methodIdentifiers":{"buyNFT(uint256,uint256,uint8,bytes32,bytes32)":"f07af69d","cancelOrder(uint256)":"514fcac7","createOrder(address,uint256,address,uint256)":"fc05ca31","deployNFTContract(string,string,string)":"65b8d328","getOrderCount()":"8d0a5fbb","getOrders()":"2e2dc43e","orders(uint256)":"a85c38ef"},"id":41}